{
  "contractName": "KeyValueStorage",
  "abi": [
    {
      "constant": true,
      "inputs": [
        {
          "name": "key",
          "type": "bytes32"
        }
      ],
      "name": "getAddress",
      "outputs": [
        {
          "name": "",
          "type": "address"
        }
      ],
      "payable": false,
      "stateMutability": "view",
      "type": "function"
    },
    {
      "constant": true,
      "inputs": [
        {
          "name": "key",
          "type": "bytes32"
        }
      ],
      "name": "getUint",
      "outputs": [
        {
          "name": "",
          "type": "uint256"
        }
      ],
      "payable": false,
      "stateMutability": "view",
      "type": "function"
    },
    {
      "constant": true,
      "inputs": [
        {
          "name": "key",
          "type": "bytes32"
        }
      ],
      "name": "getBool",
      "outputs": [
        {
          "name": "",
          "type": "bool"
        }
      ],
      "payable": false,
      "stateMutability": "view",
      "type": "function"
    },
    {
      "constant": false,
      "inputs": [
        {
          "name": "key",
          "type": "bytes32"
        },
        {
          "name": "value",
          "type": "address"
        }
      ],
      "name": "setAddress",
      "outputs": [],
      "payable": false,
      "stateMutability": "nonpayable",
      "type": "function"
    },
    {
      "constant": false,
      "inputs": [
        {
          "name": "key",
          "type": "bytes32"
        },
        {
          "name": "value",
          "type": "uint256"
        }
      ],
      "name": "setUint",
      "outputs": [],
      "payable": false,
      "stateMutability": "nonpayable",
      "type": "function"
    },
    {
      "constant": false,
      "inputs": [
        {
          "name": "key",
          "type": "bytes32"
        },
        {
          "name": "value",
          "type": "bool"
        }
      ],
      "name": "setBool",
      "outputs": [],
      "payable": false,
      "stateMutability": "nonpayable",
      "type": "function"
    },
    {
      "constant": false,
      "inputs": [
        {
          "name": "key",
          "type": "bytes32"
        }
      ],
      "name": "deleteAddress",
      "outputs": [],
      "payable": false,
      "stateMutability": "nonpayable",
      "type": "function"
    },
    {
      "constant": false,
      "inputs": [
        {
          "name": "key",
          "type": "bytes32"
        }
      ],
      "name": "deleteUint",
      "outputs": [],
      "payable": false,
      "stateMutability": "nonpayable",
      "type": "function"
    },
    {
      "constant": false,
      "inputs": [
        {
          "name": "key",
          "type": "bytes32"
        }
      ],
      "name": "deleteBool",
      "outputs": [],
      "payable": false,
      "stateMutability": "nonpayable",
      "type": "function"
    }
  ],
  "bytecode": "0x6060604052341561000f57600080fd5b6106d08061001e6000396000f300606060405260043610610099576000357c0100000000000000000000000000000000000000000000000000000000900463ffffffff1680630e14a3761461009e57806321f8a721146100c55780632c62ff2d1461012c5780637ae1cfca14610153578063abfdcced14610192578063bd02d0f5146101c4578063ca446dd9146101ff578063e2a4853a14610245578063e2b202bf14610275575b600080fd5b34156100a957600080fd5b6100c360048080356000191690602001909190505061029c565b005b34156100d057600080fd5b6100ea60048080356000191690602001909190505061031a565b604051808273ffffffffffffffffffffffffffffffffffffffff1673ffffffffffffffffffffffffffffffffffffffff16815260200191505060405180910390f35b341561013757600080fd5b61015160048080356000191690602001909190505061039c565b005b341561015e57600080fd5b610178600480803560001916906020019091905050610407565b604051808215151515815260200191505060405180910390f35b341561019d57600080fd5b6101c26004808035600019169060200190919080351515906020019091905050610476565b005b34156101cf57600080fd5b6101e96004808035600019169060200190919050506104ea565b6040518082815260200191505060405180910390f35b341561020a57600080fd5b61024360048080356000191690602001909190803573ffffffffffffffffffffffffffffffffffffffff1690602001909190505061054b565b005b341561025057600080fd5b6102736004808035600019169060200190919080359060200190919050506105e6565b005b341561028057600080fd5b61029a600480803560001916906020019091905050610646565b005b600160003373ffffffffffffffffffffffffffffffffffffffff1673ffffffffffffffffffffffffffffffffffffffff1681526020019081526020016000206000826000191660001916815260200190815260200160002060006101000a81549073ffffffffffffffffffffffffffffffffffffffff021916905550565b6000600160003373ffffffffffffffffffffffffffffffffffffffff1673ffffffffffffffffffffffffffffffffffffffff1681526020019081526020016000206000836000191660001916815260200190815260200160002060009054906101000a900473ffffffffffffffffffffffffffffffffffffffff169050919050565b600260003373ffffffffffffffffffffffffffffffffffffffff1673ffffffffffffffffffffffffffffffffffffffff1681526020019081526020016000206000826000191660001916815260200190815260200160002060006101000a81549060ff021916905550565b6000600260003373ffffffffffffffffffffffffffffffffffffffff1673ffffffffffffffffffffffffffffffffffffffff1681526020019081526020016000206000836000191660001916815260200190815260200160002060009054906101000a900460ff169050919050565b80600260003373ffffffffffffffffffffffffffffffffffffffff1673ffffffffffffffffffffffffffffffffffffffff1681526020019081526020016000206000846000191660001916815260200190815260200160002060006101000a81548160ff0219169083151502179055505050565b60008060003373ffffffffffffffffffffffffffffffffffffffff1673ffffffffffffffffffffffffffffffffffffffff16815260200190815260200160002060008360001916600019168152602001908152602001600020549050919050565b80600160003373ffffffffffffffffffffffffffffffffffffffff1673ffffffffffffffffffffffffffffffffffffffff1681526020019081526020016000206000846000191660001916815260200190815260200160002060006101000a81548173ffffffffffffffffffffffffffffffffffffffff021916908373ffffffffffffffffffffffffffffffffffffffff1602179055505050565b806000803373ffffffffffffffffffffffffffffffffffffffff1673ffffffffffffffffffffffffffffffffffffffff16815260200190815260200160002060008460001916600019168152602001908152602001600020819055505050565b6000803373ffffffffffffffffffffffffffffffffffffffff1673ffffffffffffffffffffffffffffffffffffffff1681526020019081526020016000206000826000191660001916815260200190815260200160002060009055505600a165627a7a72305820770073a66ae1735beec230a6a2230df217c6e17dec150904a461d1519724e4e00029",
  "source": "pragma solidity ^0.4.18;\r\n\r\ncontract KeyValueStorage {\r\n\r\n  mapping(address => mapping(bytes32 => uint256)) _uintStorage;\r\n  mapping(address => mapping(bytes32 => address)) _addressStorage;\r\n  mapping(address => mapping(bytes32 => bool)) _boolStorage;\r\n\r\n  /**** Get Methods ***********/\r\n\r\n  function getAddress(bytes32 key) public view returns (address) {\r\n      return _addressStorage[msg.sender][key];\r\n  }\r\n\r\n  function getUint(bytes32 key) public view returns (uint) {\r\n      return _uintStorage[msg.sender][key];\r\n  }\r\n\r\n  function getBool(bytes32 key) public view returns (bool) {\r\n      return _boolStorage[msg.sender][key];\r\n  }\r\n\r\n  /**** Set Methods ***********/\r\n\r\n  function setAddress(bytes32 key, address value) public {\r\n    _addressStorage[msg.sender][key] = value;\r\n  }\r\n\r\n  function setUint(bytes32 key, uint value) public {\r\n      _uintStorage[msg.sender][key] = value;\r\n  }\r\n\r\n  function setBool(bytes32 key, bool value) public {\r\n      _boolStorage[msg.sender][key] = value;\r\n  }\r\n\r\n  /**** Delete Methods ***********/\r\n\r\n  function deleteAddress(bytes32 key) public {\r\n      delete _addressStorage[msg.sender][key];\r\n  }\r\n\r\n  function deleteUint(bytes32 key) public {\r\n      delete _uintStorage[msg.sender][key];\r\n  }\r\n\r\n  function deleteBool(bytes32 key) public {\r\n      delete _boolStorage[msg.sender][key];\r\n  }\r\n\r\n}",
  "sourcePath": "D:\\task1\\MySample\\upgrade_smartContracts\\contracts\\KeyValueStorage.sol",
  "compiler": {
    "name": "solc",
    "version": "0.4.21+commit.dfe3193c.Emscripten.clang"
  },
  "schemaVersion": "2.0.0",
  "updatedAt": "2018-04-06T08:52:37.490Z"
}