{
  "contractName": "NumberLogicV2",
  "abi": [
    {
      "constant": false,
      "inputs": [
        {
          "name": "_number",
          "type": "uint256"
        }
      ],
      "name": "setNumber",
      "outputs": [],
      "payable": false,
      "stateMutability": "nonpayable",
      "type": "function"
    },
    {
      "constant": false,
      "inputs": [],
      "name": "getNumber",
      "outputs": [
        {
          "name": "",
          "type": "uint256"
        }
      ],
      "payable": false,
      "stateMutability": "nonpayable",
      "type": "function"
    }
  ],
  "bytecode": "0x6060604052341561000f57600080fd5b6102668061001e6000396000f30060606040526004361061004c576000357c0100000000000000000000000000000000000000000000000000000000900463ffffffff1680633fb5c1cb14610051578063f2c9ecd814610074575b600080fd5b341561005c57600080fd5b610072600480803590602001909190505061009d565b005b341561007f57600080fd5b61008761016d565b6040518082815260200191505060405180910390f35b8060140290506000809054906101000a900473ffffffffffffffffffffffffffffffffffffffff1673ffffffffffffffffffffffffffffffffffffffff1663e2a4853a826040518263ffffffff167c010000000000000000000000000000000000000000000000000000000002815260040180807f4d794e756d626572000000000000000000000000000000000000000000000000815250602001828152602001915050600060405180830381600087803b151561015a57600080fd5b5af1151561016757600080fd5b50505050565b60008060009054906101000a900473ffffffffffffffffffffffffffffffffffffffff1673ffffffffffffffffffffffffffffffffffffffff1663bd02d0f56040518163ffffffff167c010000000000000000000000000000000000000000000000000000000002815260040180807f4d794e756d6265720000000000000000000000000000000000000000000000008152506020019050602060405180830381600087803b151561021e57600080fd5b5af1151561022b57600080fd5b505050604051805190509050905600a165627a7a7230582000f55032490ed5dbd5cf2929daa7e54d5f5864b914654a35ab4b80eefabbe8c00029",
  "source": "pragma solidity ^0.4.0;\r\n\r\nimport \"./StorageStateful.sol\";\r\n\r\ncontract NumberLogicV2 is StorageStateful{\r\n    uint number;\r\n    function setNumber(uint _number) {\r\n        _number = 20*_number;\r\n        _storage.setUint(\"MyNumber\", _number);        \r\n    }\r\n    \r\n    function getNumber()public returns(uint){\r\n        return _storage.getUint(\"MyNumber\");\r\n    }\r\n}\r\n",
  "sourcePath": "D:\\task1\\MySample\\upgrade_smartContracts\\contracts\\NumberLogicV2.sol",
  "compiler": {
    "name": "solc",
    "version": "0.4.21+commit.dfe3193c.Emscripten.clang"
  },
  "schemaVersion": "2.0.0",
  "updatedAt": "2018-04-08T13:58:46.390Z"
}