{
  "contractName": "NumberLogicV1",
  "abi": [
    {
      "inputs": [
        {
          "name": "_storage",
          "type": "address"
        },
        {
          "name": "_number",
          "type": "uint256"
        }
      ],
      "payable": false,
      "stateMutability": "nonpayable",
      "type": "constructor"
    },
    {
      "constant": false,
      "inputs": [
        {
          "name": "_storage",
          "type": "address"
        }
      ],
      "name": "getNumber",
      "outputs": [
        {
          "name": "",
          "type": "uint256"
        }
      ],
      "payable": false,
      "stateMutability": "nonpayable",
      "type": "function"
    }
  ],
  "bytecode": "0x608060405234801561001057600080fd5b506040516040806102d683398101806040528101908080519060200190929190805190602001909291905050508173ffffffffffffffffffffffffffffffffffffffff1663e2a4853a60405180807f4d794e756d62657200000000000000000000000000000000000000000000000081525060080190506040518091039020836014026040518363ffffffff167c010000000000000000000000000000000000000000000000000000000002815260040180836000191660001916815260200182815260200192505050600060405180830381600087803b1580156100f457600080fd5b505af1158015610108573d6000803e3d6000fd5b5050505050506101b98061011d6000396000f300608060405260043610610041576000357c0100000000000000000000000000000000000000000000000000000000900463ffffffff168063942ea46614610046575b600080fd5b34801561005257600080fd5b50610087600480360381019080803573ffffffffffffffffffffffffffffffffffffffff16906020019092919050505061009d565b6040518082815260200191505060405180910390f35b60008173ffffffffffffffffffffffffffffffffffffffff1663bd02d0f560405180807f4d794e756d626572000000000000000000000000000000000000000000000000815250600801905060405180910390206040518263ffffffff167c0100000000000000000000000000000000000000000000000000000000028152600401808260001916600019168152602001915050602060405180830381600087803b15801561014b57600080fd5b505af115801561015f573d6000803e3d6000fd5b505050506040513d602081101561017557600080fd5b810190808051906020019092919050505090509190505600a165627a7a72305820a431d8a6f9cbdfed4747ff783511a527adb2813203dfa66a1cd6672ddc4ff8aa0029",
  "source": "pragma solidity ^0.4.0;\r\n\r\nimport \"./KeyValueStorage.sol\";\r\nimport \"./StorageStateful.sol\";\r\n\r\ncontract NumberLogicV1 is StorageStateful{\r\n    \r\n    constructor(KeyValueStorage _storage,uint _number) public {\r\n        _storage.setUint(keccak256(\"MyNumber\"), 20*_number);        \r\n    }\r\n    \r\n    function getNumber(KeyValueStorage _storage)public returns(uint){\r\n        return _storage.getUint(keccak256(\"MyNumber\"));\r\n    }\r\n    \r\n}\r\n",
  "sourcePath": "D:\\task1\\UpgradeContracts\\contracts\\NumberLogicV1.sol",
  "compiler": {
    "name": "solc",
    "version": "0.4.24+commit.e67f0147.Emscripten.clang"
  },
  "schemaVersion": "2.0.0",
  "updatedAt": "2018-06-07T03:34:25.838Z"
}