{
  "contractName": "NumberLogicV1",
  "abi": [
    {
      "constant": false,
      "inputs": [
        {
          "name": "_number",
          "type": "uint256"
        }
      ],
      "name": "setNumber",
      "outputs": [],
      "payable": false,
      "stateMutability": "nonpayable",
      "type": "function"
    }
  ],
  "bytecode": "0x6060604052341561000f57600080fd5b6101628061001e6000396000f300606060405260043610610041576000357c0100000000000000000000000000000000000000000000000000000000900463ffffffff1680633fb5c1cb14610046575b600080fd5b341561005157600080fd5b6100676004808035906020019091905050610069565b005b6000809054906101000a900473ffffffffffffffffffffffffffffffffffffffff1673ffffffffffffffffffffffffffffffffffffffff1663e2a4853a826014026040518263ffffffff167c010000000000000000000000000000000000000000000000000000000002815260040180807f4d794e756d626572000000000000000000000000000000000000000000000000815250602001828152602001915050600060405180830381600087803b151561012357600080fd5b5af1151561013057600080fd5b505050505600a165627a7a7230582093a3daecdc5f82303b2ffd59276dbe7ffc0cd8b439a5b79e357b23cafa2c7bc80029",
  "source": "pragma solidity ^0.4.0;\r\n\r\nimport \"./StorageStateful.sol\";\r\n\r\ncontract NumberLogicV1 is StorageStateful{\r\n    \r\n    function setNumber(uint _number) public {\r\n        _storage.setUint(\"MyNumber\", 20*_number);        \r\n    }\r\n    \r\n}\r\n",
  "sourcePath": "D:\\task1\\MySample\\upgrade_smartContracts\\contracts\\NumberLogicV1.sol",
  "compiler": {
    "name": "solc",
    "version": "0.4.21+commit.dfe3193c.Emscripten.clang"
  },
  "schemaVersion": "2.0.0",
  "updatedAt": "2018-04-09T07:25:43.170Z"
}