{
  "contractName": "NumberLogicV2",
  "abi": [
    {
      "constant": false,
      "inputs": [],
      "name": "getNumber",
      "outputs": [
        {
          "name": "",
          "type": "uint256"
        }
      ],
      "payable": false,
      "stateMutability": "nonpayable",
      "type": "function"
    }
  ],
  "bytecode": "0x6060604052341561000f57600080fd5b6101688061001e6000396000f300606060405260043610610041576000357c0100000000000000000000000000000000000000000000000000000000900463ffffffff168063f2c9ecd814610046575b600080fd5b341561005157600080fd5b61005961006f565b6040518082815260200191505060405180910390f35b60008060009054906101000a900473ffffffffffffffffffffffffffffffffffffffff1673ffffffffffffffffffffffffffffffffffffffff1663bd02d0f56040518163ffffffff167c010000000000000000000000000000000000000000000000000000000002815260040180807f4d794e756d6265720000000000000000000000000000000000000000000000008152506020019050602060405180830381600087803b151561012057600080fd5b5af1151561012d57600080fd5b505050604051805190509050905600a165627a7a723058202a50a09ad6edaf08c8d10b26028354fb8d68d7c779fc8fc940815511fae460060029",
  "source": "pragma solidity ^0.4.0;\r\n\r\nimport \"./StorageStateful.sol\";\r\n\r\ncontract NumberLogicV2 is StorageStateful{\r\n    // uint number;\r\n    // function setNumber(uint _number) {\r\n    //     number = 20*_number;\r\n    //     _storage.setUint(\"MyNumber\", number);        \r\n    // }\r\n    \r\n    function getNumber()public returns(uint){\r\n        return _storage.getUint(\"MyNumber\");\r\n    }\r\n}\r\n",
  "sourcePath": "D:\\task1\\MySample\\upgrade_smartContracts\\contracts\\NumberLogicV2.sol",
  "compiler": {
    "name": "solc",
    "version": "0.4.21+commit.dfe3193c.Emscripten.clang"
  },
  "schemaVersion": "2.0.0",
  "updatedAt": "2018-04-09T07:25:43.171Z"
}