{
  "contractName": "NumberLogicV2",
  "abi": [
    {
      "constant": false,
      "inputs": [],
      "name": "getNumber",
      "outputs": [
        {
          "name": "",
          "type": "uint256"
        }
      ],
      "payable": false,
      "stateMutability": "nonpayable",
      "type": "function"
    }
  ],
  "bytecode": "0x608060405234801561001057600080fd5b5061018f806100206000396000f300608060405260043610610041576000357c0100000000000000000000000000000000000000000000000000000000900463ffffffff168063f2c9ecd814610046575b600080fd5b34801561005257600080fd5b5061005b610071565b6040518082815260200191505060405180910390f35b60008060009054906101000a900473ffffffffffffffffffffffffffffffffffffffff1673ffffffffffffffffffffffffffffffffffffffff1663bd02d0f56040518163ffffffff167c010000000000000000000000000000000000000000000000000000000002815260040180807f4d794e756d6265720000000000000000000000000000000000000000000000008152506020019050602060405180830381600087803b15801561012357600080fd5b505af1158015610137573d6000803e3d6000fd5b505050506040513d602081101561014d57600080fd5b81019080805190602001909291905050509050905600a165627a7a723058202ea55f352283cb063eadab041cc5dcc8e97b6d7b57b10a68d50aad14bd77cc330029",
  "source": "pragma solidity ^0.4.0;\r\n\r\nimport \"./StorageStateful.sol\";\r\n\r\ncontract NumberLogicV2 is StorageStateful{\r\n    // uint number;\r\n    // function setNumber(uint _number) {\r\n    //     number = 20*_number;\r\n    //     _storage.setUint(\"MyNumber\", number);        \r\n    // }\r\n    \r\n    function getNumber()public returns(uint){\r\n        return _storage.getUint(\"MyNumber\");\r\n    }\r\n}\r\n",
  "sourcePath": "D:\\task1\\UpgradeContracts\\contracts\\NumberLogicV2.sol",
  "compiler": {
    "name": "solc",
    "version": "0.4.24+commit.e67f0147.Emscripten.clang"
  },
  "schemaVersion": "2.0.0",
  "updatedAt": "2018-06-07T03:30:52.545Z"
}