{
  "contractName": "NumberLogicV1",
  "abi": [
    {
      "constant": false,
      "inputs": [
        {
          "name": "_number",
          "type": "uint256"
        }
      ],
      "name": "setNumber",
      "outputs": [],
      "payable": false,
      "stateMutability": "nonpayable",
      "type": "function"
    }
  ],
  "bytecode": "0x6060604052341561000f57600080fd5b61015f8061001e6000396000f300606060405260043610610041576000357c0100000000000000000000000000000000000000000000000000000000900463ffffffff1680633fb5c1cb14610046575b600080fd5b341561005157600080fd5b6100676004808035906020019091905050610069565b005b6000809054906101000a900473ffffffffffffffffffffffffffffffffffffffff1673ffffffffffffffffffffffffffffffffffffffff1663e2a4853a826040518263ffffffff167c010000000000000000000000000000000000000000000000000000000002815260040180807f4d794e756d626572000000000000000000000000000000000000000000000000815250602001828152602001915050600060405180830381600087803b151561012057600080fd5b5af1151561012d57600080fd5b505050505600a165627a7a72305820585328db1d828323f9f5f2fe77da151fcb4bdbadf3b49c863a9eb012bfc389970029",
  "source": "pragma solidity ^0.4.0;\r\n\r\nimport \"./StorageStateful.sol\";\r\n\r\ncontract NumberLogicV1 is StorageStateful{\r\n    \r\n    function setNumber(uint _number) {\r\n        _storage.setUint(\"MyNumber\", _number);\r\n        \r\n    }\r\n    \r\n    // function getNumber()public returns(uint){\r\n    //     return _storage.getUint(\"MyNumber\");\r\n    // }\r\n}\r\n",
  "sourcePath": "D:\\task1\\MySample\\upgrade_smartContracts\\contracts\\NumberLogicV1.sol",
  "compiler": {
    "name": "solc",
    "version": "0.4.21+commit.dfe3193c.Emscripten.clang"
  },
  "schemaVersion": "2.0.0",
  "updatedAt": "2018-04-08T13:58:46.390Z"
}